:100000000C942A000C9434000C9434000C943400AA
:100010000C9434000C9434000C9434000C94340090
:100020000C9434000C9434000C9434000C94340080
:100030000C9434000C9434000C9434000C94340070
:100040000C9434000C9434000C9434000C94340060
:100050000C94340011241FBECFE5D8E0DEBFCDBF25
:100060000E9436000C944F000C9400008BEA8ABB6F
:100070008BB381608BBB8BBB8BB382608BBB8BBB29
:100080008BB388608BBB8BBB8BB380628BBB8BBB12
:100090008BB380688BBB8BBB80E090E00895F894B5
:0200A000FFCF90
:00000001FF
